:020000040800F2
:100000003807002045010008E9080008AB0800088F
:10001000E5080008890200087914000800000000C3
:10002000000000000000000000000000590D000862
:10003000B102000800000000050B0008D50E000802
:100040005F0100085F0100085F0100085F01000810
:100050005F0100085F0100085F0100085F01000800
:100060005F0100085F0100085F0100085F010008F0
:100070005F0100085F0100085F0100085F010008E0
:100080005F0100085F0100085F0100085F010008D0
:100090005F0100085F0100085F0100085F010008C0
:1000A0005F0100086D0F00085F0100085F01000894
:1000B0005F0100085F0100085F0100085F010008A0
:1000C0005F0100085F0100085F0100085F01000890
:1000D0005F010008011100085F0100085F010008CE
:1000E0005F0100085F0100085F0100085F01000870
:1000F0005F0100085F0100085F0100085F01000860
:100100005F0100085F0100085F0100085F0100084F
:100110005F0100085F0100085F0100085F0100083F
:100120005F0100085F0100085F0100085F0100082F
:10013000DFF80CD000F07AF80048004735170008C7
:10014000380700200648804706480047FEE7FEE7DC
:10015000FEE7FEE7FEE7FEE7FEE7FEE7FEE7FEE777
:10016000D90E000831010008D2B201E000F8012BDD
:10017000491EFBD270470022F6E710B513460A4627
:1001800004461946FFF7F0FF204610BD421E12F844
:10019000013F002BFBD111F8013B02F8013B002B82
:1001A000F9D1704730B505462A460B4612F8010BC7
:1001B00013F8014B08B1A042F8D01CB1002802D0BE
:1001C0006D1CF1E7284630BD421C10F8011B0029C8
:1001D000FBD1801A704710B5044600E0401C03783C
:1001E000002BFBD100E0401C521E04D311F8013B50
:1001F0000370002BF7D100210170204610BD30B5EF
:100200000B46014600202022012409E021FA02F5D4
:100210009D4205D303FA02F5491B04FA02F528446E
:10022000151EA2F10102F1DC30BD0000064C074DA5
:1002300006E0E06840F0010394E8070098471034B6
:10024000AC42F6D3FFF778FFC4190008E4190008A0
:1002500008B50121042000F067FC4FF48070ADF870
:10026000000010208DF8030003208DF8020069467D
:10027000044800F08BFA4FF48071024800F011FB43
:1002800008BD00000008014000BFFEE710B508E00F
:1002900003E04FF47A7001F0FFF900F05FFB0028F3
:1002A000F7D1024800680028F2D010BD3C000020C1
:1002B000704710B50446207B012802D1206801F068
:1002C00011FA002020606060A060207310BD70B53E
:1002D00004460E460025206898B901202073304658
:1002E00001F0E6FA20602068E0B100206060A660BE
:1002F00003E00020216848556D1CA068A842F8D88A
:1003000010E00220207303E00020216848556D1C96
:10031000A068A842F8D800206060A068B04201D26E
:100320000020206070BD00002DE9F047804689461E
:1003300017461C464046FFF747FFC5B24846FFF741
:1003400043FFC6B238212046FFF7C1FF206810B92D
:100350000120BDE8F0871020216808706068401C0B
:10036000606005F10D003044216848706068401CF1
:10037000606000202168887003202168C870606870
:10038000801C60602168081D032221A1FFF723FF64
:100390006068C01C606001202168C8716068401CF2
:1003A00060604020216808726068401C6060380A04
:1003B0002168487221688F726068801C606000202C
:1003C0002168C87221680D736068801C60602168B4
:1003D00001F10D002A464146FFF7FDFE6068284402
:1003E0006060002105F10D0022681154401C226854
:1003F00016546068801C606021680F3148193246CD
:100400004946FFF7E8FE6068304460600020A0E7DE
:100410004544500010B5044602212046FFF757FF1F
:10042000206808B9012010BDC0216268501C6060BE
:100430002068815400216268501C606020688154EB
:10044000A28891B2206800F099F90020EBE72DE92D
:10045000F84F81460D4617461E460A9C0020009024
:100460004846FFF7B1FE00F0FF08022E03D117B98E
:100470000120BDE8F88F022E08D13846FFF7A4FE10
:10048000824651462046FFF722FF04E005F118019D
:100490002046FFF71CFF206808B90220E9E7802109
:1004A0006268501C606020688154B9F1000F40D030
:1004B000022E07D13846FFF787FE0C30284400B2E1
:1004C000009004E005F10800404400B20090A188CB
:1004D0008AB22068009900F0D1FF6168084460602A
:1004E000C0216268501C60602068815400216268ED
:1004F000501C6060206881546168481C60602068FE
:1005000000F80180D4E90012881842464946FFF7F6
:1005100062FE60684044606055216268501C606003
:1005200020688154AA216268501C60602068815450
:1005300027E0022E07D13846FFF746FE0A3028444E
:1005400000B2009002E0A81D00B20090A1888AB21B
:100550002068009900F092FF6168084460604021C3
:100560006268501C60602068815455216268501C8C
:10057000606020688154AA216268501C6060206815
:1005800081546168481C606020684654022E3AD14C
:100590003846FFF719FE00F0FF0A4FF0000B00216C
:1005A0006268501C6060206881546168481C60600B
:1005B000206800F801A00AE017F80B106268501CD0
:1005C0006060206881540BF1010000F0FF0BD345FF
:1005D000F2DB290E6268501C606020688154C5F30C
:1005E00007416268501C606020688154C5F3072190
:1005F0006268501C6060206881546268501C6060B2
:10060000206885540BE0C5F307216268501C6060C8
:10061000206881546268501C606020688554002006
:1006200027E7000038B54FF47A741AA000680090EC
:100630000120194908706846FFF7C6FD054629469E
:10064000684600F0FDFE642001F026F8214613A064
:1006500000F084FB214613A000F080FB214615A08A
:1006600000F07CFB204601F017F840F2DC5114A0AA
:1006700000F074FB214619A000F070FB214621A078
:1006800000F06CFB214623A000F068FB002002492B
:10069000087038BD2B2B2B000400002041540D0A9C
:1006A0000000000041542B43574D4F44453D330D4E
:1006B0000A00000041542B5253540D0A0000000060
:1006C00041542B43574A41503D22616161222C2203
:1006D0003132333435363738220D0A0041542B433A
:1006E000495053544152543D22544350222C2231FC
:1006F00038332E3233302E34302E3339222C3837E3
:10070000360D0A0041542B4349504D4F44453D316D
:100710000D0A000041542B43495053454E440D0AE5
:100720000000000008B50121082000F0FDF91020AC
:100730008DF803000001ADF8000003208DF80200E1
:1007400069460D4800F022F84FF480710A4800F025
:10075000AAF810208DF803004001ADF80000032036
:100760008DF802006946044800F010F84FF400715B
:10077000014800F098F808BD000C014070B504462F
:100780000D462946204600F05BFE70BD2DE9F04184
:10079000024600250026002000230024002791F8AF
:1007A00003C00CF00F0591F803C00CF0100CBCF165
:1007B000000F03D091F802C04CEA050591F800C083
:1007C000BCF1000F31D0146800202BE04FF0010C79
:1007D0000CFA00F3B1F800C00CEA03069E4220D1E7
:1007E00083004FF00F0C0CFA03F7BC4305FA03FC2F
:1007F0004CEA040491F803C0BCF1280F06D14FF075
:10080000010C0CFA00FCC2F814C00AE091F803C015
:10081000BCF1480F05D14FF0010C0CFA00FCC2F8F6
:1008200010C0401C0828D1D31460B1F800C0BCF13E
:10083000FF0F34DD546800202EE000F1080C4FF06B
:10084000010808FA0CF3B1F800C00CEA03069E4256
:1008500021D183004FF00F0C0CFA03F7BC4305FACB
:1008600003FC4CEA040491F803C0BCF1280F05D145
:1008700000F1080C08FA0CF8C2F8148091F803C0D3
:10088000BCF1480F07D100F1080C4FF0010808FA3D
:100890000CF8C2F81080401C0828CED35460BDE884
:1008A000F081416170470161704700BFFEE70000C1
:1008B00008B50121082000F037F92120ADF800002B
:1008C00010208DF8030003208DF8020069460448CB
:1008D000FFF75CFF21210248FFF7E5FF08BD00009C
:1008E000000C014000BFFEE77047000070B500211A
:1008F00000230F22C47804B3154C246804F4E06488
:10090000C4F5E064210AC1F10403CA40447804FA42
:1009100003F184781440214309010E4C0678A15557
:10092000047804F01F050124AC4005786D11AD007A
:1009300005F1E025C5F8004109E0047804F01F0541
:100940000124AC40044D0678761145F8264070BD70
:100950000CED00E000E400E080E100E01FB50020C5
:10096000009001900290039001246B4622020CA19A
:1009700013A0FFF7D9FC60B9019A91B20098FFF774
:10098000FDFE4FF4FA7000F087FE6846FFF791FC19
:10099000002414B1012004B010BD0020FBE70000CA
:1009A00051433575587A3D4E33654D694748475533
:1009B00034694932347074704C776F3D0000000028
:1009C00035383931383130343900000010B5C0B015
:1009D0000446FC2101A8FFF7CEFB1BA00088208065
:1009E000FC2101A8FFF7C7FB1848027818A101A84D
:1009F00000F05CFD01A92046FFF7C8FBFC2101A81F
:100A0000FFF7B9FB1548027815A101A800F04EFDCB
:100A100001A92046FFF7BAFBFC2101A8FFF7ABFBB9
:100A20001248027812A101A800F040FD01A9204659
:100A3000FFF7ACFB11A12046FFF7A8FB2046FFF70C
:100A4000C3FBC0B240B010BD7B0000000600002018
:100A50002274657374223A25642C0000080000207B
:100A6000226C656432223A25642C000007000020C5
:100A70002242656570223A25640000007D00000076
:100A800030B5C5B00020419042904390449000247E
:100A90000025FC2102A8FFF76EFBC8211448FFF7D0
:100AA0006AFB00201349086002A8FFF78FFF044685
:100AB000E4B141A803230022214600900EA0FFF7D5
:100AC000C6FC98B908E002A8415D429A501C4290C9
:100AD00041988154681C05B2A542F4DB429A91B258
:100AE0004198FFF74BFE41A8FFF7E3FB45B030BD4F
:100AF000580000204000002035383931383130347A
:100B0000390000007047000029B1064A126902430B
:100B1000044B1A6104E0034A12698243014B1A61D3
:100B2000704700000010024029B1064A9269024352
:100B3000044B9A6104E0034A92698243014B9A6133
:100B4000704700000010024029B1064AD2680243F3
:100B5000044BDA6004E0034AD2688243014BDA6056
:100B6000704700000010024030B500210022002430
:100B700000232D4D6D6805F00C0121B1042905D02D
:100B8000082923D105E0294D056022E0274D0560A5
:100B90001FE0254D6D6805F47012234D6D6805F456
:100BA0008034022505EB92421CB9214D5543056066
:100BB0000BE01D4D6D6805F400351DB11C4D55430E
:100BC000056002E0194D5543056002E0174D0560D0
:100BD00000BF00BF144D6D6805F0F0010909154D07
:100BE0006B5C0568DD4045600F4D6D6805F4E061A4
:100BF000090A104D6B5C4568DD4085600A4D6D68E3
:100C000005F46051C90A0B4D6B5C4568DD40C56059
:100C1000054D6D6805F44041890B074D6B5CC56857
:100C2000B5FBF3F5056130BD0010024000127A00FB
:100C300000093D00200000203000002010B515A163
:100C40001548FFF7AFFA48B914A11348FFF7AAFAFD
:100C500020B913A11048FFF7A5FA50B1C8210E48DA
:100C6000FFF789FA01201049086000200F49086049
:100C70000EE00E480068401C0C49086008460068F9
:100C8000962805DB00200860C8210348FFF773FAA7
:100C900010BD00004F4B0000580000203E00000037
:100CA000726561647900000044000020400000206B
:100CB00010B524480068962806D100202149086014
:100CC000C8212148FFF757FA20480078002811DD95
:100CD0001D481C490968405C1D491E4A1268885419
:100CE0001C480068401C1B49086018480078401EDA
:100CF000164908701348006803281DDD1148006874
:100D0000801E1149085CB8B90E480068401E085C96
:100D100090B908460B490968405C00280CDD142195
:100D20000B48FFF728FA084806490968405C07495C
:100D3000087000200749086002480068401C01490B
:100D4000086010BD4000002058000020380000203E
:100D5000200100204C0000207047000070B50546BF
:100D60000C4622E0C8211248FFF705FA002011497D
:100D700008602846FFF728FA06463146284600F064
:100D80005FFBA0B200F088FC0B480068C0430B4931
:100D9000C1F894010A480068012803D100200849DD
:100DA000086003E0642000F077FCDBE700BF70BD63
:100DB0005800002040000020948121420080214200
:100DC0004400002010B500F001F810BD0CB5002063
:100DD000019000903348006840F480303149086049
:100DE00000BF3048006800F4003000900198401CBB
:100DF0000190009818B90198B0F5A06FF1D1294879
:100E0000006800F4003010B10120009001E00020E3
:100E100000900098012843D12348006840F010005A
:100E2000214908600846006820F003000860084671
:100E3000006840F0020008601A484068194948609C
:100E40000846406848600846406840F48060486052
:100E50000846406820F47C1048600846406840F42A
:100E6000E81048600846006840F08070086000BFE5
:100E70000C48006800F000700028F9D0094840686C
:100E800020F00300074948600846406840F002002F
:100E9000486000BF0348406800F00C000828F9D102
:100EA0000CBD00000010024000200240042808D1C0
:100EB0004FF0E021096941F004014FF0E022116197
:100EC00007E04FF0E021096921F004014FF0E02232
:100ED000116170477047000010B51348006840F07A
:100EE00001001149086008464068104908400E4951
:100EF0004860084600680E4908400B4908600846EB
:100F0000006820F4802008600846406820F4FE0055
:100F100048604FF41F008860FFF754FF4FF00060F7
:100F20000449086010BD0000001002400000FFF8F6
:100F3000FFFFF6FE08ED00E010B500F08BFB4FF46C
:100F40007A7000F0A9FB4FF4E13000F0E7FCFFF706
:100F5000AFFCFFF77DF9FFF7E5FBFFF763FB4821E7
:100F600041F2883000F094F810BD000010B5012166
:100F7000064800F021F840B10121044800F00DF8C6
:100F800003480068401C0249086010BD002C014065
:100F900000000020CA4302827047CA4302827047A1
:100FA00021B1028842F00102028004E002884FF67B
:100FB000FE731A400280704730B5024600200023BD
:100FC0000024158A05EA0103958905EA010413B195
:100FD0000CB1012000E0002030BD1AB183890B4321
:100FE000838102E083898B438381704700220288DA
:100FF0001D4B98420ED01D4B98420BD0B0F1804F44
:1010000008D01B4B984205D01A4B984202D01A4B7D
:10101000984204D14FF68F731A404B881A43174BEE
:10102000984207D0164B984204D04FF6FF431A401F
:10103000CB881A4302808B8883850B8803850A4BF3
:1010400098420BD0094B984208D00E4B984205D0DD
:101050000D4B984202D00D4B984201D10B7A03867A
:101060000123838270470000002C014000340140BE
:101070000004004000080040000C00400010004048
:10108000001400400040014000440140004801407D
:101090007FB505460C460121C802FFF745FD681ED5
:1010A00080B2ADF80800601E80B2ADF804000020E8
:1010B000ADF80600ADF80A008DF80C0001A90F4844
:1010C000FFF794FF19208DF8000001208DF8030030
:1010D00000208DF801008DF802006846FFF706FC3D
:1010E00001210648FFF756FF012211460348FFF78A
:1010F00074FF01210148FFF753FF7FBD002C014021
:1011000010B540F22551274800F0D5F8C0B1254868
:1011100000F08CF9C4B22448244909684454244896
:101120000078012802D1FFF789FD04E0204800780B
:1011300008B9FFF7BDFD40F225511A4800F045F807
:101140001A480068C01E1849085C202812D11748A8
:101150000068801E085C02280CD114480068401EFC
:10116000085C38B9084611490968405C10B901208B
:10117000104908600D480068801E0B49085C64280F
:101180000ED10A480068401E085C012808D10846B4
:1011900006490968405C602802D1002005490860C2
:1011A00010BD000000380140580000204000002021
:1011B000040000203C00002001F40072B2F5007F22
:1011C00000D100BFCA430280704710B5002200233F
:1011D00040F66A14A14200D100BF0A1201249440D3
:1011E000A3B2DC43048010BD21B1828942F40052D5
:1011F000828104E082894DF6FF731A408281704734
:1012000010B504462048844209D101218803FFF724
:101210009BFC00214FF48040FFF796FC32E01B4816
:10122000844209D101214804FFF76EFC00214FF4EC
:101230000030FFF769FC25E01548844209D10121FF
:101240008804FFF761FC00214FF48020FFF75CFC6D
:1012500018E01048844209D10121C804FFF754FC6A
:1012600000214FF40020FFF74FFC0BE00A488442B6
:1012700008D101210805FFF747FC00214FF4801039
:10128000FFF742FC10BD0000003801400044004060
:1012900000480040004C0040005000400246002042
:1012A000B1F5007F00D100BF13880B400BB10120C6
:1012B00000E00020704770B502460024002300259E
:1012C000002040F66A16B14200D100BFC1F34215BA
:1012D00001F01F03012606FA03F3012D02D19689BE
:1012E000334006E0022D02D1168A334001E0968A8F
:1012F00033400C12012606FA04F41688344013B168
:101300000CB1012000E0002070BDF0B503460024C0
:1013100000260025002040F66A17B94200D100BF20
:101320001846C1F3421401F01F06012707FA06F51B
:10133000012C01D10C3004E0022C01D1103000E06E
:1013400014301AB107682F43076002E00768AF4303
:101350000760F0BD2DE9F04786B005460E46002433
:10136000A24600BFA1460027B08900B100BF2F46AA
:101370002C8A4CF6FF700440F08804432C82AC8920
:101380004EF6F3100440B088318908437189084350
:101390000443AC81AC8A4FF6FF400440B08904435B
:1013A000AC8201A8FFF7E0FB1F48874202D1DDF8BD
:1013B00010A001E0DDF80CA0A88900F4004040B1C5
:1013C0000AEBCA0000EB0A1031684900B0FBF1F8E3
:1013D00007E00AEBCA0000EB0A1031688900B0FB95
:1013E000F1F86420B8FBF0F004012009642101FB4E
:1013F0001089A88900F4004040B1322000EBC900F8
:10140000B0FBF1F000F00700044308E0322000EBED
:1014100009106421B0FBF1F000F00F0004432C81AF
:1014200006B0BDE8F087000000380140014688881A
:10143000C0F308007047C1F30802828070470000C3
:1014400070B504460D4640210A48FFF7B5FE002658
:101450000CE021780748FFF7EEFF00BF4021054868
:10146000FFF71CFF0128F9D1641C761CAE42F0DBAB
:1014700070BD00000038014000BFFEE770B50346B4
:101480000024002500BF01F07F05C90909B145F01E
:1014900080051046561CB2B21D54641C09B1052CBF
:1014A000F1DB501E80B2024670BD00000FB4084B45
:1014B00010B504A902AA039800F01CF8044602A97A
:1014C000002000F0C1F8204610BC5DF814FB0000BD
:1014D0004916000802E008C8121F08C1002AFAD104
:1014E00070477047002001E001C1121F002AFBD1A4
:1014F000704700002DE9FF4F89B09B460446002548
:1015000006E025280BD05A460B999047641C6D1CA9
:1015100020780028F5D10DB02846BDE8F08F0027CF
:10152000B8460122474900E0074314F8013F203B39
:1015300002FA03F00842F7D120782E2819D114F8C6
:10154000010F47F004072A280ED06FF02F022078F1
:10155000A0F1300109290CD808EB880102EB410108
:1015600000EB0108641CF2E70A98641C50F8048B35
:101570000A9020780028CED0642808D0692806D0A8
:1015800075281ED05A460B9990476D1C58E00A9951
:101590004FF00A0901C90A91002802DA40422D21C0
:1015A00002E0390504D52B218DF82010012103E03C
:1015B000F90704D02021F7E78A4608AE0DE00021A4
:1015C000FAE70A994FF00A0901C90A91F7E7494673
:1015D000FEF715FE303106F8011D0028F7D1ADEBFE
:1015E000060000F12009780701D44FF00108C84532
:1015F00002DDA8EB090000E000208046002706E09D
:1016000008A85A46C05D0B9990476D1C7F1C574532
:10161000F6DB04E030205A460B9990476D1CB8F178
:101620000001A8F10108F5DC05E016F8010B5A46A7
:101630000B9990476D1CB9F10001A9F10109F4DC87
:10164000641C65E7092801000A68531C0B601070D0
:101650007047000010B56FF00400FFF727FC0A4840
:1016600000680A49B0FBF1F00949087008460078A3
:1016700000EB4001C1EBC0104FF6FF7101EAC00062
:101680000449088010BD00000C00002000127A0000
:1016900034000020360000200146114A12884A43D7
:1016A0004FF0E0235A6100229A611A46126942F013
:1016B00001021A6100BF4FF0E022106900F0010240
:1016C0001AB100F48032002AF5D04FF0E0221269FE
:1016D00022F001024FF0E0231A6100229A61704764
:1016E0003600002010B5002821D0114B0022001F29
:1016F000196803E0814203D80A4649680029F9D1F4
:1017000052B11368841A9C4204D1006818441060D6
:10171000104602E0506000E0186039B102680B1A10
:10172000934203D10B681A4402604968416010BDBE
:10173000500000201FB500200090019002900390FF
:10174000FFF7FAFBFEF7A2FD8BE04648006841F286
:101750008831884205D36846FEF75CFE0020414987
:10176000086041A14248FEF71DFD78B120214148A3
:10177000FFF797F8012040490870FFF781F914201E
:10178000FFF78AFF14213A48FEF7F5FC3BA13848E1
:10179000FEF708FD78B120213648FFF784F80020D5
:1017A00035490870FFF76CF91420FFF775FF142115
:1017B0002F48FEF7E0FC33A12D48FEF7F3FC80B183
:1017C0004FF480713148FFF76EF8012030490870FE
:1017D000FFF756F91420FFF75FFF14212448FEF7A6
:1017E000CAFC2CA12248FEF7DDFC80B14FF48071C9
:1017F0002648FFF756F8002025490870FFF740F902
:101800001420FFF749FF14211948FEF7B4FC23A167
:101810001748FEF7C7FC78B101211648FFF741F8D9
:10182000012020490870FFF72BF91420FFF734FF3F
:1018300014210F48FEF79FFC1BA10D48FEF7B2FCD8
:1018400078B101210B48FFF72EF8002015490870E8
:10185000FFF716F91420FFF71FFF14210448FEF7C5
:101860008AFC72E7000000204F50454E0000000047
:1018700020010020000C014006000020434C4F5383
:10188000450000004265657031000000000801401D
:101890000700002042656570300000004C4544326E
:1018A00031000000080000204C45443230000000A8
:1018B000F0B50B30154D20F007010024144A0FE05D
:1018C00003688B420BD38B4205D95E1A43184768D5
:1018D000C3E9006700E04368136002C004E0021D32
:1018E00010680028ECD12046002802D1286808B1F1
:1018F0000020F0BD064A07481060074A121A22F07D
:101900000702C0E9002401202860D7E75400002026
:10191000500000203C0100203803002010B586B0A4
:101920000446012144F20400FFF7FEF82348FFF7C4
:1019300067FC4FF40070ADF8140003208DF816001A
:1019400018208DF8170005A91D48FEF71FFF4FF45A
:101950008060ADF8140004208DF8170005A9184820
:10196000FEF714FF25208DF8000003208DF80100FC
:101970008DF8020001208DF803006846FEF7B6FFDF
:1019800001940020ADF80800ADF80A00ADF80C0095
:10199000ADF810000C20ADF80E0001A90748FFF7C4
:1019A000D9FC012240F225510448FFF7AEFC012189
:1019B0000248FFF719FC06B010BD000000380140D6
:1019C00000080140E4190008000000205800000051
:1019D000D41400083C1A000858000020E00600005B
:1019E000E4140008000000000000000000000000F7
:1019F00000A24A04000000000000000001020304ED
:101A000006070809000000000102030401020304A4
:101A10000607080902040608000000000000000094
:101A200000000000000000000000000000000000B6
:0C1A3000000000000000000000000000AA
:0400000508000131BD
:00000001FF
